:020000040800F2
:1000000010080020A9010008632E000885280008B8
:10001000612E0008FD1300080F31000800000000E9
:10002000000000000000000000000000672E000833
:100030008315000800000000652E0008692E0008E6
:10004000C3010008C3010008C3010008C301000880
:10005000C3010008C3010008C3010008C301000870
:10006000C3010008C3010008C3010008C301000860
:10007000C3010008C3010008C3010008C301000850
:10008000C3010008C3010008C3010008C301000840
:10009000C3010008C3010008C3010008C301000830
:1000A000C3010008C3010008C3010008C301000820
:1000B000C3010008C3010008C3010008C301000810
:1000C000C3010008C3010008C3010008C301000800
:1000D000C3010008C3010008C3010008C3010008F0
:1000E000C3010008C3010008C301000800F002F8C2
:1000F00000F04AF80AA090E8000C82448344AAF178
:100100000107DA4501D100F03FF8AFF2090EBAE875
:100110000F0013F0010F18BFFB1A43F0010318473B
:100120007C4600009C460000103A24BF78C878C185
:10013000FAD8520724BF30C830C144BF04680C60ED
:10014000704700000023002400250026103A28BF35
:1001500078C1FBD8520728BF30C148BF0B60704739
:10016000662904F04082642900F07A8000207047FC
:100170001FB500F0FDFB04000020002104F07CF816
:10018000E0601FBD10B510BD00F0F2FC1146FFF796
:10019000EFFF03F05BF800F010FD03B4FFF7F2FF90
:1001A00003BC00F053FD00000948804709480047A0
:1001B000FEE7FEE7FEE7FEE7FEE7FEE7FEE7FEE717
:1001C000FEE7FEE704480549054A064B7047000074
:1001D000CB2E0008ED0000081002002010080020BF
:1001E00010040020100400200FB41CB5074B06AA11
:1001F0007B4469460090059800F0A1FB0020694609
:1002000000F0B0FB1CBC5DF814FB0000710700009F
:1002100070B5044685690068C10601D5302600E046
:100220002026C00707D070BDD4E901213046904791
:10023000206A401C20626D1EF6D570BD70B5044664
:1002400085690078C00707D170BDD4E9012120205D
:100250009047206A401C20626D1EF6D570BD0000DC
:100260002DE9F0410646002410687529314616A58F
:1002700010D0AFF30080002802DA404213A507E057
:1002800031688A0701D512A502E0490704D511A5F6
:10029000012401E0AFF3008000210A2206F12407C7
:1002A00009E0B0FBF2FCB0FBF2F302FB1C003030C3
:1002B00078541846491C0028F3D123462A46304674
:1002C000BDE8F04100F0CEB8000000002D000000B5
:1002D0002B000000200000002DE9F05F8946044655
:1002E0004FF0000ADFF824B1FB44C0F820A02046FC
:1002F000E168884700287DD0252806D0D4E901216F
:100300009047206A401C2062F1E700255F462046A6
:10031000E16888472028064607DB312E05D2B81948
:1003200010F8200C08B10543F1E7A80701D525F026
:100330000405C4F81CA00027C4F818A02A2E09D070
:10034000304602F009FF38B304EB8708303EC8F8A6
:10035000186019E059F8041B204604EB87029161EC
:10036000E1688847012F064618D1E069002820DAA5
:1003700025F020051DE0D8F8180000EB800006EB02
:1003800040003038C8F818002046E1688847064623
:1003900002F0E2FE0028EED1012F0AD02E2E08D165
:1003A0002046E16888477F1C0646022F45F020055D
:1003B000C4DBA069002803DA404245F00105A061D2
:1003C000E80701D025F01005A6B1A6F141001928D3
:1003D00002D8203645F400654A463146204625605D
:1003E0004D46FFF7BDFE60B1012807D0ED1D25F099
:1003F000070000E007E000F1080978E705F10409CB
:1004000075E730467AE7206ABDE8F09F08440000AF
:100410004FF0000200B5134694469646203922BF9D
:10042000A0E80C50A0E80C50B1F12001BFF4F7AFE8
:10043000090728BFA0E80C5048BF0CC05DF804EBCA
:10044000890028BF40F8042B08BF704748BF20F838
:10045000022B11F0804F18BF00F8012B7047704736
:10046000704770472DE9F0470D469946924604467D
:1004700000F124080168880604D5E06921F0100124
:10048000216000E00120A84201DD471B00E00027B9
:10049000A1697A1902EB0900081AA0612078C00648
:1004A00002D42046FFF7B4FE002608E0D4E901217B
:1004B0001AF806009047206A401C761C20624E45C0
:1004C000F4DB2078C0060AD52046FFF7A1FE06E03F
:1004D000D4E9012130209047206A401C2062381E58
:1004E000A7F10107F4DC07E0D4E9012118F80500C1
:1004F0009047206A401C2062281EA5F10105F3DC0C
:100500002046FFF79BFE2078000602D50220BDE8BA
:10051000F0870120FBE770472DE9FF4F0C461E4690
:100520004FF0FF378BB0D2E90001DDF860800A9010
:100530008A46C1F30A5505B93D46002108464FF0E9
:100540000000BAF1000F00F4400005DA00EB800073
:100550004FF4400101EA50004FEA9059B9F1010F00
:1005600000DDB9460A9850EA4A000ED044F6105011
:10057000A5F2FF3545432F14B8F1000F1ED0754288
:10058000291E1EDDC9F100021CE0B8F1010F4FF079
:10059000000001D0302103E0F24305E02154401C6B
:1005A000B042FBDB30460022002121540B99C1F8F8
:1005B0000880C1E900200FB0BDE8F08FBD1B6D1CA5
:1005C000DEE74A4600DA694206A800F05BFA06ABAD
:1005D00093E8070003AB83E8070050460A9900F050
:1005E0003CFB8DE80700A0F500501F3800900398F1
:1005F000002D0ADD42F21F014A460844002303A9E8
:100600000390684600F0A5FD09E0A0F500504A46B9
:100610001F38002303A90390684600F0AFFD8DE862
:1006200007000004000C03D04FF0FF30410800E049
:100630001046B8F1000F03D00022009215461EE0CC
:10064000751E05D400F098F9303262556D1EF9D54B
:10065000B3460122084302D000227F1C04E0207828
:10066000302801D100227F1E002A099784D01DE086
:10067000112D07DA00F080F9303262556D1C50EA16
:100680000102F5D1084302D00098C8B10EE0002164
:10069000681E05E0235C625C63542254401E491CC2
:1006A0008142F7DBAB46A81B401E0990002004F8EE
:1006B0000B000B98099AC0F80880C0E9002B7AE774
:1006C00011264FF0000857E72DE9F04F8846044601
:1006D000D21D22F0070191B0D1E90001CDE90A0154
:1006E00002F016FD02460B98C00F01D02D2007E046
:1006F0002068810701D52B2002E0202101EAC000FB
:10070000032A099001D0072A05DB0346414620460B
:1007100000F078F90BE12078800601D5E06900E06F
:100720000620B8F1650F814606D0B8F1660F18D0E3
:10073000B8F1670F70D131E00020B9F1110F0090CE
:1007400001DB112301E009F101030AAA01A90CA8A8
:10075000FFF7E2FEDDE90C70002609F10105834692
:1007600047E001204B4600904FF000470AAA01A93C
:100770000CA8FFF7D1FEDDE90DB00C995D4600260F
:1007800010B909F101000D18B9EB050003D4C0F14F
:10079000FF3609F10105A5EB09002BE0B9F1010FC6
:1007A00001DA4FF001090020B9F1110F009048461D
:1007B00001DD112300E003460AAA01A90CA8FFF7F6
:1007C000ABFEDDE90C704D4600268346207800071D
:1007D0000AD4AB4500DA5D4601A8012D04DD4119BC
:1007E00011F8011C302907D04F4502DA17F1040F28
:1007F00004DA012082460FE06D1EEEE7002F02DCD6
:10080000ED1B3E4403E0781CA84200DD7D1CB81BB4
:1008100000F1010A4FF000472078000703D4AA45F1
:1008200001DB4FF0FF3A0021B7F1004F0DF1430813
:100830008DF8431024D002202B23002F01DA7F42B1
:100840002D230A21021EA0F1010000DC5FB197FBFD
:10085000F1FC97FBF1F201FB1C7C17460CF1300C0C
:1008600008F801CDEEE7A8F1010003702188090521
:1008700001D5452100E06521A0F1010800F8011C27
:1008800009980FA9A1EB0807FF1D00B1012041192C
:1008900001EBEA70A1693844081A401EA061207873
:1008A000C00602D42046FFF7B3FC099828B1D4E96A
:1008B00001219047206A401C20622078C00622D582
:1008C0002046FFF7A5FC1EE0002E04DBB34502DD49
:1008D00001A8805D00E03020D4E901219047206A22
:1008E000401C2062761CAAF101005FEA000A0AD1CE
:1008F00000F03EF8C0680168405CD4E901219047EF
:10090000206A401C2062281EA5F10105DCDC07E0FE
:10091000D4E9012118F8010B9047206A401C20629D
:10092000381EA7F10107F3DC2046FFF787FC032000
:1009300011B041E601694A1C02610878704700B5B0
:100940008FB0CDE901310021059105497944CDE908
:10095000031011466846FFF7BFFC0FB000BD000052
:10096000E5FFFFFF0A6802F8010B0A60704700000C
:1009700000487047D001002030B5B0F10A024FEABC
:10098000900E71F100034EEA817EB0EB0E0061EB38
:1009900091014FEA101E4EEA017E10EB0E0041EB72
:1009A00011114FEA102E4EEA016E10EB0E0041EBD2
:1009B00011214FEA104E4EEA014E10EB0E0041EBB2
:1009C0001141401841F100014FEAD00040EA417066
:1009D0004FEAD10110EB80054FEA810444EA90749C
:1009E00044EB01046D1944EB0404521BA3414FF086
:1009F000000348BF0A3200D530BD401C41F1000160
:100A000030BD00002DE9F0411F4604460326016871
:100A1000072A01F4006004DB08B116A505E016A55D
:100A200003E008B115A500E015A521F01000206035
:100A3000A069C01EA0610FB1401EA0612046FFF753
:100A4000E7FB4FB1D4E9012138469047206A401CAA
:100A50002062C01C206206E0206AFAE7D4E9012186
:100A600015F8010B9047761EF8D22046FFF7E6FBFB
:100A7000BDE8F0814E414E006E616E00494E460069
:100A8000696E66002DE9F047814616468AB0354802
:100A900078440DC88DE80D0032487844801C03ACC2
:100AA0000DC884E80D0041F69B300844372190FBC7
:100AB000F1F290FBF1F5A5F1800501FB12041B3C5E
:100AC00002D56442012000E00020DFF898A08046B3
:100AD0000027FA44AAF1BE0A0EE0E0070AD0324627
:100AE000684607EB470101230AEB810100F046FB52
:100AF0008DE8070064107F1C002CEED1194F7F4455
:100B0000AE3F19E0E80715D007EB04100DF1180A05
:100B100090E80E008AE80E00C068F04201D19819F2
:100B200008903246012306A903A800F027FB03AB77
:100B300083E807006D10641C002DE3D14FF0010322
:100B400032466946B8F1000F03A802D000F001FB5D
:100B500001E000F013FBC9E90001C9F808200AB060
:100B6000BDE8F087F03C000000487047B00100206D
:100B70007546FFF7F9FFAE4605006946534620F07B
:100B80000700854618B020B5FFF71CFBBDE82040E4
:100B90004FF000064FF000074FF000084FF0000B39
:100BA00021F00701AC46ACE8C009ACE8C009ACE8EC
:100BB000C009ACE8C0098D46704710B50446AFF3D4
:100BC00000802046BDE81040FFF7E7BA4FF0013C37
:100BD00050F8042B51F8043B9A4221D1A2EB0C03AC
:100BE000934313EACC1317D150F8042B51F8043B6C
:100BF0009A4215D1A2EB0C03934313EACC130BD109
:100C000050F8042B51F8043B9A4209D1A2EB0C0393
:100C1000934313EACC13DBD04FF00000704700BFC2
:100C2000D01A01BAB1FA81F101F0180122FA01F0EB
:100C3000CB40C1F12001DBB2C0B2C01A2CFA01F3E3
:100C4000D11A914311EAC311E6D170470149182026
:100C5000ABBEFEE72600020070475FEA400C08BF0B
:100C600091F0000F4FEA8C234FEAC12243EA515121
:100C70004FEA1C5018BF00F5F0404FEA300018BF93
:100C800041F000415FEA6C5C00F02980BCF1FF3F5D
:100C900008BF40F080407047130C06BF12044FF0AD
:100CA000100C4FF0000C130E04BF12020CF1080CD4
:100CB000130F04BF12010CF1040C930F04BF920038
:100CC0000CF1020CD30F04BF52000CF1010C1146C1
:100CD0004FF00002A0F11F00A0EB0C00704711F0D4
:100CE000004F08BF704731F000413FF4D5AF0B0C07
:100CF00006BF09044FF0100C4FF0000C0B0E04BFA0
:100D000009020CF1080C0B0F04BF09010CF1040CD3
:100D10008B0F04BF89000CF1020CCB0F04BF4900FC
:100D20000CF1010CCCF12003A0EB0C0022FA03F330
:100D300002FA0CF241EA030100F10100704720F0D1
:100D40007F4C80EA030023F07F47ACEB070303F5F9
:100D50007C5300F0004003F1FF032DE980494FEA86
:100D6000154B09B44FEA144325EA0B4E24EA034815
:100D70000FF2042606EB132749083E785FEA320299
:100D800003FB0667C7F5000707FB06F64FEA543773
:100D90004FEAD64606F1020607FB066CCCF1005C72
:100DA0004FEA1C472CEA074C07FB06F40CFB06F540
:100DB00004EB15464FEA961634BF00204FF0004072
:100DC0004FEAD13706FB07FC4FEA1C4C0CFB0BF734
:100DD000D21B03FB0CF761EB07010CFB0EF7B0EB2A
:100DE000074072EB17420CFB08F734BFA2EB074237
:100DF000B2EB074261EB17414FEA0C444FEA91070F
:100E000006FB07FC4FEA1C4C0CFB0BF7B0EBC74092
:100E100072EB573203FB0CF734BFA2EBC742B2EBC5
:100E2000C74261EB57310CFB0EF7B0EBC70072EB1A
:100E300057720CFB08F734BFA2EBC702B2EBC70234
:100E400061EB5771039F4FEA816141EA921104EB14
:100E5000CC044FEAD1374FEA826206FB07FC42EA34
:100E600090124FEA80604FEA1C4C0CFB0BF7D21B30
:100E700003FB0CF761EB07010CFB0EF7B0EB07402F
:100E800072EB17420CFB08F734BFA2EB0742B2EB40
:100E9000074261EB17414FEA8C554FEA910704EB8B
:100EA0009C2406FB07FC4FEA1C4C0CFB0BF7B0EB39
:100EB000C74072EB573203FB0CF734BFA2EBC742BB
:100EC000B2EBC74261EB57310CFB0EF7B0EBC7003A
:100ED00072EB57720CFB08F734BFA2EBC702B2EB00
:100EE000C70261EB577115EB4C254FEA816141EA6E
:100EF00092114FEA82624FEAD13742EA901206FB22
:100F000007FC44F100044FEA80604FEA1C4C0CFBE4
:100F10000BF7D21B03FB0CF761EB07010CFB0EF781
:100F2000B0EB074072EB17420CFB08F734BFA2EBA3
:100F30000742B2EB074261EB174115EB1C154FEA74
:100F4000813141EA92414FEA823242EA90424FEACD
:100F500080304FEA0C7644F1000448EA03434EEA3D
:100F60000B484FF0000EB2EB080C71EB030724BFE7
:100F7000624639464EEB0E0E4FF0000B0018524100
:100F800049414BEB0B0BB2EB080C71EB03077BF108
:100F9000000B24BF624639464EEB0E0E4FF0000B9D
:100FA0000018524149414BEB0B0BB2EB080C71EBB3
:100FB00003077BF1000B24BF624639464EEB0E0E51
:100FC00051EA020718BF46F0010616EB0E7655F1FE
:100FD000000254F1000103D5BDE88901BDE8008895
:100FE000BDE88901BDE80048B619524141EB010155
:100FF000A3F10103704780807F7E7D7C7B7A7978C6
:10100000777676757473727171706F6E6E6D6C6CCD
:101010006B6A6A696868676666656464636362616F
:101020006160605F5F5E5E5D5D5C5C5B5B5A5A59F0
:10103000595858575756565555555454535352525C
:101040005251515050504F4F4F4E4E4D4D4D4C4CB4
:101050004C4B4B4B4A4A4A494949484848474747FD
:10106000474646464545454444444443434343423A
:10107000424242414141002B9C4630D477002BD064
:101080001CB54FEA370703B44FF010004FF01001C2
:10109000BAF1000F06D0BCF1000FDCBF40F0080031
:1010A00040F008014FF000000FBCBDE810400BF10C
:1010B000010BBBF1010F08BF5FEA170722BF12F156
:1010C000010211F101014FF0004143F1000300F072
:1010D000004043EA00007047F9D35708D0E746EADA
:1010E000064613F1400F4FEA16461FDD13F1200F9D
:1010F000DFBF16430A46002120335B42BED0C3F156
:10110000200746EA064602FA07F74FEA164646EA7D
:101110000706C3F1200722FA03F201FA07F721FAC2
:1011200003F14FF0000342EA0702A7E746EA02068E
:1011300046EA06464FEA164646EA0106BCBF46EABC
:101140000646360C4FF000034FF000024FF000014E
:1011500094E72DE9804C9A46934670B491E83800A4
:1011600007C831EA400C48BF34EA430C03D5FFF707
:10117000E6FDFFF780FFF0BCBDE8008C2DE9804C58
:101180009A46934670B491E8380007C810F0804F33
:1011900008BF13F0804F03D100F005F8FFF76BFF95
:1011A000F0BCBDE8008C20F07F4780EA030023F00C
:1011B0007F4C07EB0C03A3F57C5300F00040A3F138
:1011C000FE0392F0000F00F0B38095F0000F00F0E6
:1011D00077802DE901494FEA11404FEA144621EA90
:1011E000004800FB06FC24EA064708FB06F607FB5E
:1011F00008F800FB07F718EB06484CEB164C4FEAD3
:10120000124B18EB07484FEA15464CEB174022EA01
:101210000B4E0BFB06FC25EA06470EFB06F607FB0A
:101220000EFE0BFB07F71EEB064E4CEB164C4FF079
:1012300000061EEB074E4CEB174B18EB0B0840F16A
:10124000000018EB0E0B58EB000840F100008F1A5D
:101250004FF000013CBFC943661B14BFB5EB040C43
:1012600000213CBFC943F61B4FEA17444EEA8E0EDD
:1012700027EA04454FEA1C4704FB07622CEA074CA7
:1012800005FB07F70CFB05F604FB0CFC16EB074609
:1012900042EB174216EB0C4642EB1C421BEB0606D8
:1012A00058EB0202414146EA9E0601D5BDE801899C
:1012B000B619524141EB0101A3F10103BDE80189D7
:1012C0004FEA14454FEA114724EA054621EA074C44
:1012D00005FB07F406FB07F70CFB06F105FB0CFC0E
:1012E00011EB074144EB17444FEA124711EB0C4155
:1012F00044EB1C4422EA074C05FB07F206FB07F708
:101300000CFB06F605FB0CFC16EB074642EB1742FE
:1013100016EB0C4642EB1C456A1854F1000148BF1D
:101320007047B619524141EB0101A3F10103704727
:1013300095F0000F37D04FEA11424FEA144721EAE7
:10134000024624EA074C02FB07F106FB07F70CFBF9
:1013500006F402FB0CFC14EB074441EB17414FEA87
:10136000154714EB0C4441EB1C4125EA074C02FBEA
:1013700007F506FB07F70CFB06F602FB0CFC16EB69
:10138000074645EB174516EB0C4645EB1C42121978
:1013900051F1000148BF7047B619524141EB0101BC
:1013A000A3F1010370474FEA14454FEA114724EABD
:1013B000054621EA074C05FB07F106FB07F70CFB86
:1013C00006F24FF0000605FB0CFC12EB074241EB66
:1013D000174112EB0C4251EB1C4148BF7047921869
:1013E00041EB0101A3F10103704700F00F01000977
:1013F00000EB800001EB4000C0B27047FEE710B583
:1014000004460298216022716371A0712820A072A5
:101410000620E0710C202072142060720820E07217
:10142000322000F0AFF800223321204600F069F8A6
:1014300000223321204600F064F8052000F0A2F8D5
:1014400000223221204600F05CF8052000F09AF8D6
:1014500000222021204600F054F8052000F092F8E8
:10146000E1790022204600F04CF8217A0022204643
:1014700000F047F8617A0022204600F042F8A17A95
:101480000022204600F03DF800220121204600F015
:1014900038F820460022BDE81040022100F031B8A3
:1014A00030B4447900238C4201D8641EE1B28479BF
:1014B000944201D8641EE2B232B1012A06D0022A57
:1014C00006D0032A06D007E00B4605E0403102E0D3
:1014D000143100E05431CBB230BC43F08001002223
:1014E00000F00FB8012200F00CB870B50C460546AC
:1014F00003E02846641CFFF7F5FF21780029F8D1A6
:1015000070BD7CB506460807040EF07A01F0F005C0
:1015100018B145F0080544F00804012A01D02AB1A9
:1015200008E045F0010544F0010403E025F0010561
:1015300024F0010445F004008DF80400012000F0BF
:1015400021F88DF8055044F004008DF806000120C4
:1015500000F018F84FF47A708DF807400090317958
:10156000042301AA306800F00BFB7CBD0A21B0FB0C
:10157000F1F201FB1202B0FBF1F042EA0010C0B23E
:101580007047704770B5044600F008F90546601CC6
:1015900002D004480078044400F000F9401BA04247
:1015A000FAD370BD080000202DE9F84FDFF8B8919C
:1015B0000024A9F1040B23460F2709F1040AABF11B
:1015C000040EC9E00125A5402A40AA427DD1674EFC
:1015D000D1F804C0ACEB0608B44532D014DCBCF141
:1015E000030F3AD009DCBCF1000F2AD0BCF1010F87
:1015F0001CD0BCF1020F31D11DE0BCF1110F17D08E
:10160000BCF1120F2AD119E0B8F5881F19D006DCF9
:10161000B8F5803F15D0B8F5801F1FD111E0B8F59F
:10162000001F0ED0B8F5041F18D10AE0CB6815E0F2
:10163000CB681B1D12E0CB6808330FE0CB680C337E
:101640000CE08B682BB1012B4FF0080303D04561F0
:1016500004E0042302E0056100E00023FF2A01D832
:10166000064601E000F104064FEA840501D9A5F120
:101670002005D6F8008007FA05FC28EA0C0803FAD2
:1016800005F548EA0508C6F800804D68ED0062D50A
:10169000374DAE6946F00106AE61AD6924F0030630
:1016A00005F001050095334D06EB050CDCF80850FC
:1016B000A607360F07FA06F825EA0805DFF8B8800E
:1016C000404503D14FF0000817E044E0DFF8AC805C
:1016D000404502D14FF001080FE0DFF8A4804045FB
:1016E00002D14FF0020808E0DFF89880404502D1AF
:1016F0004FF0030801E04FF0040808FA06F848EA42
:101700000508CCF808804D68D9F80060ED024D4618
:1017100001D5164300E096432E604D68DAF800606C
:10172000AD02554601D5164300E096432E604D6844
:10173000DBF80060AD035D4601D5164300E096433B
:101740002E604D68DEF80060ED03754601D5164346
:1017500000E096432E60641C0D682A46E5407FF445
:1017600031AFBDE8F88F00000804014000001110FF
:10177000001002400000014000080140000C014040
:1017800000100140001401408068084000D0012092
:1017900070470AB1016170470904FBE7014880689E
:1017A000704700000800002070B5040025D094F8B0
:1017B0003D00002520B984F83C50204600F076FA20
:1017C000242084F83D002068016821F001010160B7
:1017D0002068016841F4004101602068016821F43B
:1017E0000041016000F0B0FB4D4A6168914201D8B0
:1017F0004C4900E04C49884201D2012070BD4B4960
:101800002368B0FBF1F15E6826F03F060E435E6090
:101810006368934206D94FF4967359434FF47A7331
:10182000B1FBF3F12368491C1E6A26F03F063143E1
:1018300019626168914210D84900401EB0FBF1F274
:10184000521CC2F30B02042A01D2042022E0B0FB96
:10185000F1F0401CC0F30B001CE0A268F2B301EBF6
:10186000C10303EB0116431EB3FBF6F35B1C43F409
:1018700080431B0549D092B301EBC10202EB011179
:10188000401EB0FBF1F0401CC0F30B0040F4804060
:1018900040F400402168CA694CF6FF739A43104334
:1018A000C861D4E9071001432068026822F0C00231
:1018B00011430160D4E9030101432068826848F2C2
:1018C000FF339A4311438160D4E90501084321683D
:1018D000CA6822F0FF021043C86001E00EE016E083
:1018E0002068016841F0010101602564202084F82E
:1018F0003D00256384F83E50002070BD01EB410699
:10190000431EB3FBF6F35B1CB3E70120C2E701EB18
:101910004101401EB0FBF1F0401CC0F30B00B7E7E3
:10192000A086010080841E0000093D0040420F0097
:101930002DE9F84F0025DDF82890984617468A468D
:1019400004460095FFF72AFF064694F83D0020283C
:101950007AD11923012286492046009601F09AF88F
:101960000028F5D194F83C0001286DD0012084F8BE
:101970003C0020680168C90703D1016841F00101FA
:1019800001602068016821F400610160222084F870
:101990003D00102084F83E0025646762A4F82A8088
:1019A000608D20857348E06233464A4651462046A2
:1019B00000F080FF00287CD1208DDFF8BC8120273B
:1019C00068B1012814D00228206801681ED041F4B3
:1019D000806101602068416980690090BBE02068F7
:1019E000416981690091016841F400710160B2E0D0
:1019F0002068016821F48061016072B62068416945
:101A000081690091016841F400710AE041F40061CC
:101A1000016072B62068416981690091016821F412
:101A20008061016062B696E0032865D801280CD079
:101A300002284B464FF000024146204600960BD04C
:101A400001F028F8A8BB0CE090E032464946204659
:101A500001F0C6F868BB71E001F01CF848BB72B633
:101A600033E02068016821F48061016072B620686B
:101A70000069616A0870606A401C6062208D401EC7
:101A80002085608D401E60853C4846F2A8110068A4
:101A9000B0FBF1F0C0EBC00000EB80000090401EF6
:101AA000009007D020684069C04340070DD50098DA
:101AB000F5E727E044F8305F6773A573206940F0CD
:101AC0002000206162B625731CE02068016841F4A3
:101AD0000071016020680069616A0870606A401CDA
:101AE0006062218D491E2185618D491E618562B626
:101AF00021680969017025E032464946204601F017
:101B00006FF810B10120BDE8F88F20680069616AA4
:101B10000870606A401C6062208D401E81B2218581
:101B2000608D401E608520684269D243520712D4FE
:101B3000032903D1016821F48061016020680069F4
:101B4000616A0870606A401C6062208D401E2085BA
:101B5000608D401E6085208D00287FF465AF84F87D
:101B60003D7084F83E5084F83C50CCE70220CAE730
:101B7000020010000000FFFF04000100140000201C
:101B80002DE9F84F1F4690468A460446DDF8289016
:101B9000FFF704FE054694F83D0020287FD1192365
:101BA000012240492046009500F074FF002876D1BC
:101BB00094F83C00012872D0012084F83C00206891
:101BC0000168C90703D1016841F001010160206883
:101BD000016821F400610160212084F83D0010209B
:101BE00084F83E0000262664C4F824806785608D52
:101BF00020852D48E0622B464A465146204600F09B
:101C0000CFFE90B9206841698069009036E02A468D
:101C10004946204601F01CF850B1206C042804D13C
:101C20002068016841F4007101600120BDE8F88F6F
:101C3000606A216800780861606A401C6062618D9A
:101C4000491E6185218D491E89B22185226853690B
:101C5000DB435B070BD451B100781061606A401C14
:101C60006062608D401E6085208D401E20852A4662
:101C70004946204600F0E2FE0028CED1208D002803
:101C8000C5D154F83D0B016841F40071016020207A
:101C900004F81E09E67766770020C7E7FFE7022011
:101CA000C4E70000020010000000FFFF10B586B07E
:101CB0000021009101910291039100680F4988422F
:101CC0001AD10F4CA06940F00800A061A0696946D4
:101CD00000F008000490C020009012200190032022
:101CE00003900848FFF760FCE06940F40010E061F1
:101CF000E06900F40010049006B010BD00540040EC
:101D000000100240000C0140024881680278114432
:101D10008160704708000020074810B5016841F055
:101D200010010160032000F067F80F2000F006F8B2
:101D300000F024F8002010BD0020024070B50D4DC9
:101D400004464FF47A712878B1FBF0F00A4909682B
:101D5000B1FBF0F000F0BEFA48B9102C07D2002217
:101D60002146501E00F028F800206C6070BD012054
:101D700070BD000008000020140000200C4808B5C9
:101D8000816941F001018161816901F001010091E6
:101D9000C16941F08051C161C06900F0805000907C
:101DA0000448416821F0E06141F00071416008BDE4
:101DB0000010024000000140F0B40E4B1B680C46BE
:101DC000C3F30223C3F10705042D00D90425191D0F
:101DD000072901D2002300E0DB1E012606FA05F1E7
:101DE000491E214099409E40761E16403143F0BC6A
:101DF00001F0A2B90CED00E0064900F00702086806
:101E00004FF6FF03184040EA0220034A10430860DF
:101E1000704700000CED00E00000FA052DE9F047E6
:101E20000F46050061D0434E306800F00700B8420D
:101E300009D2306820F0070038433060306800F085
:101E40000700B84251D128683B4C810712D54007A2
:101E500003D5606840F4E06060602878000703D52F
:101E6000606840F4605060606068A96820F0F0002D
:101E7000084360602878C00728D06868012810D01F
:101E80002168022810D0890700292EDA616821F024
:101E9000030101436160FFF781FC804641F288390C
:101EA0000DE021688903EFE78901EDE7FFF776FC94
:101EB000A0EB0801494502D90320BDE8F08760681E
:101EC000696800F00C00B0EB810FEFD1306800F0D2
:101ED0000700B8420BD9306820F007003843306063
:101EE000306800F00700B84201D00120E5E728780B
:101EF000400705D56068E96820F4E0600843606049
:101F00002878000706D56068296920F4605040EA07
:101F1000C100606000F028F86168084AC1F303114D
:101F2000515CC8400649086006480068FFF706FF94
:101F30000020C2E70020024000100240DC460008FA
:101F4000140000200C00002004480549006849687E
:101F5000044AC1F30221515CC840704714000020BC
:101F600000100240EC4600080E4A51680E4801F08D
:101F70000C03042B11D0082B0FD10C48C1F3834361
:101F8000C903C05C0AD55168084AC1F34041921E9A
:101F9000515C054A5043B0FBF1F070470449484397
:101FA000704700000010024000127A00CC46000882
:101FB00000093D002DE9F84F040070D02078C04D95
:101FC000C00749D06868C0F38100012807D068685D
:101FD000C0F38100022809D16868C00306D52868CB
:101FE000800339D560680028E7D035E06068B0F537
:101FF000803F0BD010B1B0F5A02F11D0286820F48D
:1020000080302860286820F4802002E0286840F4AE
:1020100080302860606890B1FFF7C0FB06460AE098
:10202000286840F480202860F0E700BFFFF7B6FB87
:10203000801B642873D828688003F7D50CE0FFF76D
:10204000ADFB064605E000BFFFF7A8FB801B642838
:10205000F0D828688003F7D420789A4E80074FF094
:1020600001094FF0000839D5686810F00C0F07D04F
:102070006868C0F38100022809D16868C00306D4EB
:102080002868800714D52069012808D110E020694C
:10209000B0B1C6F80090FFF781FB074605E00AE102
:1020A000FFF77CFBC01B0228C4D828688007F7D53F
:1020B0002868616920F0F80040EAC10028600DE05E
:1020C000C6F80080FFF76AFB074604E0FFF766FBEF
:1020D000C01B022823D828688007F7D4207800077F
:1020E0002CD57948A169D9B1C0F80090FFF756FB0B
:1020F000074604E0FFF752FBC01B02280FD8686AAE
:102100008007F7D571484FF4FA510068B0FBF1F041
:10211000009000BF0098411E0091FAD20EE080E0CE
:10212000C0F80080FFF73AFB074604E0FFF736FBF4
:10213000C01B022875D8686A8007F7D4207840074A
:1021400060D5E8690027C00008D4E86940F08050F5
:10215000E861E869012700F0805000905C48016860
:10216000C90513D40168834641F480710160FFF70B
:1021700015FB824606E000BFFFF710FBA0EB0A004C
:1021800064284ED8DBF80000C005F5D5E0680128CA
:102190000AD008B1052813D0286A20F0010028626F
:1021A000286A20F0040002E0286A40F0010028625A
:1021B000E06841F2883B98B1FFF7F0FA82460BE005
:1021C000286A40F004002862EEE700BFFFF7E6FA55
:1021D000A0EB0A0159455AD8286A8007F6D50CE0C9
:1021E000FFF7DCFA824605E0FFF7D8FAA0EB0A0118
:1021F00059454CD8286A8007F6D41FB1E86920F009
:102200008050E861E06988B36968C1F381010229FF
:1022100044D00228C6F8608004D0FFF7BFFA044615
:1022200038E034E0FFF7BAFA074604E0FFF7B6FA01
:10223000C01B02282BD828688001F7D4206AB0F58B
:10224000803F05D16868A16820F4003008436860C9
:10225000D4E908010843696821F4741108436860EF
:10226000C6F86090FFF79AFA044606E025E000BF42
:10227000FFF794FA001B022809D828688001F7D5D7
:102280001BE000BFFFF78AFA001B022802D90320D7
:10229000BDE8F88F28688001F4D40EE00128F7D05B
:1022A0006868226A00F48031914204D1616A00F4C6
:1022B0007010884201D00120EAE70020E8E7000022
:1022C00000100240000042428004424214000020FC
:1022D0000070004010B5401EB0F1807F01D3012096
:1022E00010BD4FF0E02460610F21601700F024FF63
:1022F0000020A06107202061002010BD10B590F8DB
:102300003C20012A22D0012280F83C20CA688C6837
:1023100022F4407222434C6822F4806222430C680B
:1023200022F4006222430C6922F4805222434C6959
:1023300022F400522243C969002322F480420A4356
:1023400001684A6480F83C30002010BD022010BDB6
:1023500070B590F83C20012A26D0012480F83C403A
:10236000022280F83D2003685A689D6822F07006BA
:102370000A6832435A600D4B02689A4208D0B2F1A3
:10238000804F05D00A4B9A4202D00A4B9A4204D1A0
:10239000496825F080031943916080F83D40002191
:1023A00080F83C10084670BD022070BD002C014032
:1023B000000400400008004010B5040003D094F869
:1023C0003D0010B107E0012010BD002084F83C0062
:1023D000204600F01FF8022084F83D00211D2068EF
:1023E00000F074FD012084F8460084F83E0084F873
:1023F0003F0084F8400084F8410084F8420084F8EB
:10240000430084F8440084F8450084F83D0000202F
:1024100010BD000008B50068B0F1804F08D1054834
:10242000C16941F00101C161C06900F00100009083
:1024300008BD00000010024090F83D10012901D0B5
:1024400001207047022180F83D1000680B49884246
:1024500008D0B0F1804F05D00949884202D009491F
:10246000884204D1816801F00701062903D0016880
:1024700041F001010160002070470000002C014084
:10248000000400400008004001680A6A41F211138C
:102490001A4207D10A6A9B101A4203D10A6822F035
:1024A00001020A60012180F83D100020704770B5DC
:1024B000044690F83C000025012817D0012684F836
:1024C0003C60022084F83D002068826822F0770298
:1024D00022F47F4282600868502838D00DDC202822
:1024E0004FD005DC90B3102811D14AE0022070BD16
:1024F000302846D040280AD13BE060282FD07028F1
:102500000DD0B0F5805F03D0B0F5005F12D001258B
:1025100084F83D60002084F83C00284670BDCB68FC
:10252000D1E90121206800F01AFD2068816841F09E
:10253000770109E0CB68D1E90121206800F00FFDA7
:102540002068816841F480418160E1E719E0CA6850
:102550004968206800F0B8FD5021206806E0CA688C
:102560004968206800F0C1FD6021206800F001FD8D
:10257000CEE7CA684968206800F0A6FD40212068BF
:10258000F4E7226801461046F0E7000000B585B088
:102590000021009101910291039100680B4988424A
:1025A00012D10B48816941F004018161806969465B
:1025B00000F0040004904FF480700090022001901D
:1025C00003900448FEF7F0FF05B000BD002C014069
:1025D000001002400008014070B5044690F83C002D
:1025E00000260D4601280FD0012084F83C006AB176
:1025F000042A1DD0082A2FD00C2A3FD00126002003
:1026000084F83C00304670BD022070BD206800F0A8
:10261000B9FC2068816941F0080181612068816905
:1026200021F004018161206881692A69114311E068
:10263000206800F0CFFC2068816941F4006181616D
:102640002068816921F480618161206881692A693B
:1026500041EA02218161D2E7206800F0E7FC2068AE
:10266000C16941F00801C1612068C16921F004011C
:10267000C1612068C1692A69114311E0206800F036
:1026800001FD2068C16941F40061C1612068C16930
:1026900021F48061C1612068C1692A6941EA02218F
:1026A000C161ACE710B5040003D094F83D0010B14F
:1026B00007E0012010BD002084F83C00204600F017
:1026C0001FF8022084F83D00211D206800F0FEFB69
:1026D000012084F8460084F83E0084F83F0084F826
:1026E000400084F8410084F8420084F8430084F8F4
:1026F000440084F8450084F83D00002010BD00002F
:1027000008B500680649884208D10648816941F445
:1027100000618161806900F40060009008BD0000E4
:10272000002C01400010024010B50446022249B1BD
:1027300004290ED0082913D094F84100012816D09E
:10274000012010BD94F83E000128F9D184F83E2004
:102750000FE094F83F000128F2D184F83F2008E010
:1027600094F840000128EBD184F8402001E084F87F
:1027700041200122206800F0E5FB0F4920688842D3
:1027800003D1426C42F4004242642068884208D07F
:10279000B0F1804F05D00949884202D008498842EB
:1027A00004D1816801F00701062903D0016841F0D6
:1027B00001010160002010BD002C01400004004018
:1027C0000008004070B51C4C00251C4862781C4E67
:1027D0004FF48061012A07D0022A11D0032A02D1C6
:1027E00001202070657070BDFEF7CEFF0128FAD180
:1027F000306845621248FFF71FFE0220607070BD0E
:10280000FEF7C2FF0028FAD10D48FFF73DFE306801
:10281000406A0321A060617001F0A0FD094901F048
:10282000E5FD4FF0FF3101F012FF0749606088427B
:10283000E5DB0648606070BD54000020000C0140DC
:10284000FC000020287E0C3D0000C842E1FAC7428F
:1028500070B50A4C00200122094E2070D50229468D
:102860003046FEF796FF012000F0E4FC00222946E6
:102870003046FEF78EFF0120607070BD54000020CE
:10288000000C0140FEE701684A69D24352050FD4AB
:102890006FF480624A61002140F8301F20224273A9
:1028A0008173026942F004020261017301207047E2
:1028B000002070472DE9F84F0446C06A1E46934633
:1028C0000D4621680A6842F480620A60082807D031
:1028D000012805D010F5803F02D0206B112804D1CB
:1028E0002068016841F4807101604FF001195B4676
:1028F000002249462046009600F0CCF84FF40078BC
:1029000040B120680068C00501D5C4F840800320AC
:10291000BDE8F88F2069DFF884A0B0F5804F0FD0B4
:102920000620216800EAD51747F0F0000861334619
:102930005A460AF10601204600F0F4F858BB03E0BD
:10294000E8B240F001001CE02168E8B208613346BB
:102950005A465146204600F0E5F8E0B92068416942
:1029600081690091016841F4807101605B46002239
:1029700049462046009600F08DF80028C1D147F066
:10298000F1002168086133465A465146204600F05E
:10299000C9F80028BCD00120BAE7000002000100FD
:1029A000F8B50446C06A1E460D461746082807D0EB
:1029B000012805D010F5803F02D0206B122804D1E9
:1029C0002068016841F480710160134600224FF0D5
:1029D00001112046009600F05DF840B120680068C3
:1029E000C00502D54FF4007020640320F8BD2069B3
:1029F000B0F5804F0ED00620216800EAD51040F0D7
:102A0000F000086133463A460B49204600F08AF848
:102A100078B902E005F0FE0000E0E8B22168086144
:102A2000054933463A46891F204600F07BF80028C6
:102A3000DCD00120F8BD00000800010070B516468A
:102A40000D4604461EE02046FFF71DFF08B1012099
:102A500070BD681C16D0FEF7A1FE801BA84200D8EE
:102A600085B920684069C04340070BD5002044F871
:102A7000300F20216173A073216941F02001216191
:102A80002073E4E720684069C0434007DBD400209E
:102A900070BD00002DE9F047984617460D460446E4
:102AA000C1F30746DDF820902AE000BFB8F1FF3FF0
:102AB00026D0FEF773FEA0EB0901414502D8B8F11C
:102AC000000F1DD12068012E16D0806925EA000074
:102AD0000004000C12D00020B84211D1002044F8AC
:102AE000300F20216173A073216941F02001216121
:102AF00020730120BDE8F0874069E7E70120EBE79C
:102B00002068012E0AD0806925EA00000004000C2C
:102B100006D00020B842C9D00020EBE74069F3E7B7
:102B20000120F7E72DE9F047984616460D46044682
:102B30004FF000094FF0200AC1F3074723E0206857
:102B40004069C043400515D42068016841F4007114
:102B5000016021686FF480604861C4F8309084F8A7
:102B60003DA084F83E90216C41F00401216484F87A
:102B70003C9021E0701C06D0FEF710FEA0EB080090
:102B8000B04203D816B1012F1FD021E02068012FD9
:102B900015D0806925EA00000004000C18D000BFA1
:102BA00044F8309F84F80DA084F80E90216941F01C
:102BB0002001216184F80C900120BDE8F087406974
:102BC00025EA00000004000CEAD12068406901E019
:102BD0002068806925EA00000004000CAFD1ECE712
:102BE0002DE9F041002590460E460446202728E0B6
:102BF0004069C043C0060CD454F8301B6FF010007D
:102C0000486144F810596777A577206A20622577D4
:102C100014E0FEF7C3FDA0EB0800B04200D886B96F
:102C200020684069C04340060BD544F8305F6773A5
:102C3000A573206940F02000206125730120BDE8C4
:102C4000F08120684169C9434906D1D40020F6E7E4
:102C500070B516460D4604461EE02046FFF713FEEB
:102C600008B1012070BD681C16D0FEF797FD801BCF
:102C7000A84200D885B920684069C04300060BD53A
:102C8000002044F8300F20216173A073216941F0C6
:102C9000200121612073E4E720684069C0430006F9
:102CA000DBD4002070BD0000F0B585B000242748BB
:102CB0000094019402940394816941F010018161B0
:102CC000816901F010010491816941F02001816165
:102CD000816901F020010491816941F00401816161
:102CE000816901F004010491816941F00801816169
:102CF0008069174F00F008004FF40066049000222E
:102D000031463846FEF745FDB00002258DE831001A
:102D100069461048FEF748FC07208DE831006946F7
:102D20000D48FEF741FC6802CDE9000469463846CB
:102D30000294FEF739FC01AA0120009682E83100D6
:102D400069463846FEF730FC05B0F0BD0010024081
:102D5000000C0140001001400008014010B592B085
:102D600000240F941C2108A81094FDF751FB20218A
:102D70006846FDF74DFB20481E4901604721C0E928
:102D8000011440F2E731C0E9031444618461FFF7A4
:102D900089FC08B172B6FEE70F940FA9164810948B
:102DA000FFF7D6FA08B172B6FEE76020CDE9080455
:102DB0000A940B940C940D94002208A90E480E94CA
:102DC000FFF70AFC08B172B6FEE700944FF400501A
:102DD000CDE904400294019403946946064807949F
:102DE000FFF78CFA08B172B6FEE70348FFF7CEFB97
:102DF00012B010BD002C0140B400002010B586B008
:102E000000241648009401940294039404944FF013
:102E10008041059401604721C0E901144FF6FF711C
:102E2000C0E903148461FFF7C7FA08B172B6FEE780
:102E30004FF48050009069460848FFF738FB08B10E
:102E400072B6FEE7049404A904480594FFF780FADB
:102E5000002801D072B6FEE706B010BDFC000020CD
:102E6000FEE7FEE770477047FEF74EBF30B58FB004
:102E700028216846FDF7CCFA14210AA8FDF7C8FA04
:102E800001210804CDE900100024029402250491D8
:102E9000CDE907504FF4E01009906846FFF78AF833
:102EA00008B172B6FEE70F20CDE90A054FF4806045
:102EB000CDE90C4002210AA80E94FEF7AFFF0028CE
:102EC00001D072B6FEE70FB030BD7047F0B50268B2
:102ED000194B1A4C1A4D4FF08047984205D0B84212
:102EE00003D0A04201D0A84203D122F070064A6864
:102EF0003243984205D0B84203D0A04201D0A84244
:102F000003D122F44074CA6822434C6922F0800243
:102F1000224302608A68C2620A688262984201D1D2
:102F200009690163012141610169C90703D0016990
:102F300021F001010161F0BD002C014000040040BE
:102F40000008004010B501F01F030121046A9940F8
:102F50008C430462016A9A401143016210BD10B5AE
:102F6000846842EA032224F47F440A4322438260B5
:102F700010BD826822F070020A4342F007018160AE
:102F80007047000030B5036A026A22F00102026253
:102F90004268846924F073050C682C4323F0020511
:102FA0008B682B430A4DA8420BD123F00805CB6850
:102FB00022F440722B434D6923F0040315438A69C0
:102FC0002A434260846149684163036230BD000066
:102FD000002C014030B5026A036A23F0100303623B
:102FE000436884690D6824F4E64444EA05248D6846
:102FF00022F0200242EA05120B4DA8420ED1CD6804
:1030000022F0800242EA05124D6923F4406343EA4C
:1030100085038D6922F0400243EA850343608461A1
:1030200049688163026230BD002C014030B5036AFB
:10303000026A22F4807202624268C46923F4007357
:1030400024F073050C682C438D6843EA05230C4D6E
:10305000A8420ED1CD6823F4006343EA05234D69ED
:1030600022F4405242EA05128D6923F4806342EA59
:1030700005124260C4614968C163036230BD00004B
:10308000002C014030B5046A026A22F480520262C8
:103090004268C3690D6823F4E64343EA05238D685B
:1030A00024F4005444EA0534064DA84204D14D6985
:1030B00022F4804242EA85124260C3614968016499
:1030C000046230BD002C014010B5036A046A24F08C
:1030D00001040462846924F0F00444EA021423F039
:1030E0000A020A438461026210BD10B5036A046AD1
:1030F00024F010040462846923F0A00324F47044D3
:1031000044EA023243EA01118261016210BDFEE726
:10311000490050EAC12018BF04204A0D18BF40F0F2
:10312000010040F2FF72B2EB515F08BF40F00200B5
:10313000012808BF052070470907090E002804DB95
:1031400000F1E02080F80014704700F00F0000F15B
:10315000E02080F8141D704730380A2801D2012081
:103160007047002070470000134880790E2822D253
:10317000DFE800F02107090B0D0F11131517191BBC
:103180001D1F00F0AFBA00F00BBA00F0ADB800F0B0
:1031900029B900F0C3BB00F0FDBB00F0E3B800F0BC
:1031A00037BC00F0C1B900F0D9BA00F07BBB00F029
:1031B0003DBB00F00FBB704718000020034840786B
:1031C00008B1FFF7FFBAFFF743BB0000540000202F
:1031D00010B5FFF7F3FF044C02E000BFFFF7EEFF6E
:1031E00020780028FAD010BD540000202DE9F041CD
:1031F0000E46074601F00F04FEF7D0FA05463146A9
:103200003846FEF7C1FA0A49012804D000200855C3
:10321000085DBDE8F0810648403850F82420AA1A1D
:10322000322AF5D901220A5540F82450F0E700006F
:103230009001002070B50546FEF7B0FA4FEA000491
:10324000FEF7ACFA001BA842FAD370BD08B5FEF732
:1032500063FDFFF70BFEFFF727FD20481E494FF4E3
:10326000804201601E49416000218160C0E9031273
:1032700041618161C1610162FEF796FA08B172B6DF
:10328000FEE7FFF7BBFDFFF769FD02201349009041
:1032900010234E2201F1E400FEF7B1F80F4800219F
:1032A0005430FFF741FA0D4D0E4C54355FF0640673
:1032B000FFF78EFF0B48401C00F0B6FE00F024FF25
:1032C00000F08EFF2078012801D12868466300F0C5
:1032D000DFFBFFF749FFEBE70054004060000020F0
:1032E000A08601000000002010B500221146104801
:1032F000FEF7D6F80FA10E48FEF7F7F80E48006863
:1033000000F0D6FF02460B460CA11048FCF76CFFFC
:103310000E490748FEF7E9F8012200210448FEF7AC
:10332000BFF8BDE810400AA10148FEF7DEB8000072
:10333000440100204B433A0058000020252E3266FD
:10334000636D20202020202000000000A00100202C
:10335000202020202020202020202020202020206D
:103360000000000010B51048104C00224078E061C9
:1033700011460F48FEF794F80EA10D48FEF7B5F878
:1033800010A11248E269FCF72FFF10490848FEF728
:10339000ACF8012200210648FEF782F8BDE8104093
:1033A0000BA10348FEF7A1B801000020180000207F
:1033B0004401002056415259204D494E5554455321
:1033C0003A0000002530326420000000A0010020F7
:1033D00020202020202020202020202020202020ED
:1033E0000000000010B53E483E4C00220178A1616B
:1033F0004178E16181782162C17861620179A162DD
:103400004179E1628079206311463748FEF748F838
:1034100036A13848226AFCF7E7FE36493248FEF703
:1034200064F835A13048FEF760F830A13148E26910
:10343000FCF7DAFE2F492C48FEF757F82EA12A4850
:10344000FEF753F82DA12B48A269FCF7CDFE2949C0
:103450002548FEF74AF862782BA12648FCF7C4FEFF
:1034600024492148FEF741F8012200211E48FEF7B9
:1034700017F827A11C48FEF738F823A11D48626AF7
:10348000FCF7B2FE1B491848FEF72FF822A1164898
:10349000FEF72BF815A11748A26AFCF7A5FE1549FF
:1034A0001148FEF722F81DA10F48FEF71EF80FA1E4
:1034B0001048E26AFCF798FE0E490B48FEF715F833
:1034C00016A10948FEF711F815A10A48226BFCF76E
:1034D0008BFEBDE8104007490348FEF706B8000020
:1034E0000100002018000020440100202530326433
:1034F00000000000A00100203A00000025303264E6
:1035000020202020202020002530316400000000F1
:103510005448553A000000002C0000002F00000025
:10352000253032642020000010B5002211460E48DC
:10353000FDF7B6FF0DA10C48FDF7D7FF0F4810A10E
:10354000C2681148FCF750FE0F490748FDF7CDFF50
:10355000012200210448FDF7A3FFBDE810400BA1A4
:103560000148FDF7C2BF000044010020414C415218
:103570004D20484F5552533A0000000018000020DB
:103580002530326420200000A001002020202020CF
:1035900020202020202020202020202000000000AB
:1035A00010B53E483E4C00220178A1614178E161AE
:1035B00081782162C17861620179A1624179E16219
:1035C0008079206311463748FDF76AFF36A13848F5
:1035D000226AFCF709FE36493248FDF786FF35A11D
:1035E0003048FDF782FF30A13148E269FCF7FCFD6D
:1035F0002F492C48FDF779FF2EA12A48FDF775FFCA
:103600002DA12B48A269FCF7EFFD29492548FDF7BC
:103610006CFF22782BA12648FCF7E6FD24492148BF
:10362000FDF763FF012200211E48FDF739FF27A1A6
:103630001C48FDF75AFF23A11D48626AFCF7D4FD20
:103640001B491848FDF751FF22A11648FDF74DFF11
:1036500015A11748A26AFCF7C7FD15491148FDF7E7
:1036600044FF1DA10F48FDF740FF0FA11048E26A7B
:10367000FCF7BAFD0E490B48FDF737FF16A10948C4
:10368000FDF733FF15A10A48226BFCF7ADFDBDE83D
:10369000104007490348FDF728BF00000100002043
:1036A0001800002044010020253032640000000092
:1036B000A00100203A0000002530326420202020A4
:1036C0002020200025303164000000005448553A85
:1036D000000000002C0000002F00000025303264A4
:1036E0002020000010B5002211460E48FDF7D8FE3C
:1036F0000DA10C48FDF7F9FE0F4810A10279114801
:10370000FCF772FD0F490748FDF7EFFE012200218B
:103710000448FDF7C5FEBDE810400BA10148FDF7C8
:10372000E4BE000044010020313A58454D2047498D
:103730004F20202020202000180000202530316458
:1037400000000000A0010020323A4B484F414E4794
:1037500020434143482020200000000010B50022F3
:1037600011460E48FDF79CFE0DA10C48FDF7BDFE6D
:103770000F4810A182681148FCF736FD0F49074831
:10378000FDF7B3FE012200210448FDF789FEBDE8E4
:1037900010400BA10148FDF7A8BE00004401002025
:1037A000414C41524D204D494E555445533A00002D
:1037B000180000202530326400000000A001002025
:1037C00020202020202020202020202020202020F9
:1037D0000000000010B5002211460948FDF760FE08
:1037E00008A10748FDF781FE012200210448FDF7EA
:1037F00057FEBDE8104008A10148FDF776BE000065
:10380000440100204E474F49205155412047494F20
:103810002020202000000000202020202020202028
:1038200020202020202020200000000010B50022B1
:1038300011460E48FDF734FE0DA10C48FDF755FE6C
:103840000E480FA142691148FCF7CEFC0F4907480A
:10385000FDF74BFE012200210448FDF721FEBDE8E3
:1038600010400BA10148FDF740BE000044010020BC
:10387000534554204449533A0000000018000020EA
:1038800025303264636D202020200000A00100203C
:103890002020202020202020202020202020202028
:1038A0000000000010B5002211460E48FDF7F8FD9B
:1038B0000DA10C48FDF719FE0F4810A1026911482F
:1038C000FCF792FC0F490748FDF70FFE012200218B
:1038D0000448FDF7E5FDBDE810400BA10148FDF7E8
:1038E00004BE000044010020414C41524D2053458C
:1038F000434F4E44533A00001800002025303264F4
:1039000000000000A00100202020202020202020F6
:1039100020202020202020200000000010B50022C0
:1039200011460E48FDF7BCFD0DA10C48FDF7DDFD6D
:103930000F4810A182781148FCF756FC0F49074840
:10394000FDF7D3FD012200210448FDF7A9FDBDE8E4
:1039500010400BA10148FDF7C8BD00004401002044
:10396000414C41524D2020202020202020202000AA
:10397000180000202530316400000000A001002064
:103980002020202020202020202020202020202037
:103990000000000010B51048104C00228078206212
:1039A00011460F48FDF77CFD0EA10D48FDF79DFD6A
:1039B0000FA11148226AFCF717FC0F490848FDF7D0
:1039C00094FD012200210648FDF76AFDBDE8104084
:1039D0000AA10348FDF789BD01000020180000205E
:1039E000440100205641525920484F5552533A0045
:1039F0002530326420202000A0010020202020203B
:103A00002020202020202020202020200000000036
:103A100010B51048104C00220078A06111460F48E4
:103A2000FDF73EFD0EA10D48FDF75FFD10A1124808
:103A3000A269FCF7D9FB10490848FDF756FD0122A1
:103A400000210648FDF72CFDBDE810400BA10348FE
:103A5000FDF74BBD010000201800002044010020AC
:103A600056415259205345434F4E44533A000000AB
:103A70002530326420000000A001002020202020FA
:103A800020202020202020202020202000000000B6
:103A90002DE9F05F4FF40051F848FFF7A7FBF84C11
:103AA000012610B1A07901287ED0F64D02212846CA
:103AB000FFF79CFB10B1A079012876D0022128469F
:103AC000FFF794FB042710B1A07902286ED00221E1
:103AD0002846FFF78BFB4FF006084FF0070A10B19E
:103AE000A07904287ED002212846FFF77FFB4FF003
:103AF00009094FF00A0B10B1A079052873D00221F3
:103B00002846FFF773FB30B1A07906286CD0072850
:103B1000FCD00828FAD00221DA48FFF767FB10B181
:103B2000A07903287ED04FF400552946D348FFF7EB
:103B30005DFB10B1A079022875D02946CF48FFF768
:103B400055FB10B1A07904286ED0CC4F29463846D9
:103B5000FFF74CFB10B1A079052866D04FF4005157
:103B6000C648FFF743FBC84F002510B1A0790628CF
:103B70007ED04FF40051C148FFF738FB10B1A07957
:103B8000092876D04FF40051BC48FFF72FFB10B145
:103B9000A07907286ED04FF40051B848FFF726FBF4
:103BA00030B1A0790A2802E072E085E094E06ED09E
:103BB0004FF40051B148FFF719FB10B1A079082864
:103BC00078D04FF40051AD48FFF710FB10B1A07949
:103BD0000B2870D04FF40051A848FFF707FB30B115
:103BE000A07902E087E09CE0B1E00C2870D00121D0
:103BF000A448FFF7FBFA10B1A079062869D0DFF8D6
:103C0000848201214046FFF7F1FA10B1A07909281A
:103C100070D00121C1464046FFF7E8FA4FF03B085B
:103C200038B103E09CE0A5E0B5E0C4E0A079072846
:103C30006FD001214846FFF7D9FA10B1A0790A28C0
:103C400068D001214846FFF7D1FA10B1A0790828C1
:103C500075D001214F464846FFF7C8FA10B1A07948
:103C60000B286DD004213846FFF7C0FA002802E087
:103C7000B1E0C8E0D9E072D0257125706570A671F9
:103C800004213846FDF780FD0128F9D0BEE1E3E0CC
:103C90002079401CC0B22071032800D32671A67180
:103CA000764D4FF4005421462846FDF76DFD01285E
:103CB000F9D0ABE1EAE0FFE0207901280AD0032047
:103CC000A07102212846FDF75FFD0128F9D09DE192
:103CD00004E116E10220F3E72078022807D0A7715B
:103CE00002212846FDF750FD0128F9D08EE105207C
:103CF000A071F5E71BE1607801280CD002280DD0F7
:103D00000820A07102212846FDF73EFD0128F9D0C8
:103D10007CE11CE130E184F80680F3E784F806A03A
:103D2000F0E7A07801280CD002280DD00B20A0715C
:103D300002212846FDF728FD0128F9D066E12BE194
:103D40003FE184F80690F3E784F806B0F0E7A77146
:103D500002212846FDF718FD0128F9D056E13FE180
:103D60000C20A071474C02212046FDF70DFD0128D3
:103D7000F9D04BE12078401CC0B22070032800D35A
:103D800026700220A0713D4C29462046FDF7FCFC20
:103D90000128F9D03AE16078401CC0B26070042874
:103DA00000D36670A771354C29462046FDF7ECFC20
:103DB0000128F9D02AE1A078401CC0B2A0700428E4
:103DC00000D3A6700520A07129463846FDF7DCFC1B
:103DD0000128F9D01AE1206A401C2062182800DB73
:103DE000256294F82000B870274800F059F984F84B
:103DF0000680224D4FF4005421462846FDF7C4FCAE
:103E00000128F9D002E1E068401CE060182800DBDE
:103E1000E56084F80690194D4FF400542146284679
:103E2000FDF7B2FC0128F9D0F0E0E069401CE06148
:103E30003C2800DBE561207F7870134800F030F902
:103E400084F806A00D4D4FF4005421462846FDF796
:103E50009BFC0128F9D0D9E0A068401CA0603C2858
:103E600000DBA56084F806B0044D4FF400542146F1
:103E70002846FDF789FC0128F9D0C7E00010014071
:103E8000180000200008014001000020A069401C2B
:103E9000A0613C2800DBA561207E38705F4800F0FF
:103EA000FFF80820A0715E4D840221462846FDF7E8
:103EB0006BFC0128F9D0A9E02069401C20613C2856
:103EC00000DB25610B20A071554D4FF400542146B5
:103ED0002846FDF759FC0128F9D097E06069401D9C
:103EE0006061642801DD642060610C20A0714C4D8C
:103EF0004FF4005421462846FDF746FC0128F9D02E
:103F000084E0206A401E206201D51720206294F8C8
:103F10002000B870414800F0C3F884F80680414C96
:103F200001212046FDF730FC0128F9D06EE0E06861
:103F3000401EE06001D51720E06084F806904446FA
:103F400001212046FDF720FC0128F9D05EE0E06960
:103F5000401EE06101D5C4F81C80207F78702F4896
:103F600000F09EF884F806A04C4601212046FDF79B
:103F70000BFC0128F9D049E0A068401EA06001D5E3
:103F8000C4F8088084F806B04C4601212046FDF7AD
:103F9000FBFB0128F9D039E0A069401EA06101D5E2
:103FA000C4F81880207E38701C4800F079F808208A
:103FB000A0714C4601212046FDF7E6FB0128F9D00F
:103FC00024E02069401E206101D5C4F810800B2038
:103FD000A07101213846FDF7D7FB0128F9D015E083
:103FE00001213846FFF702F9002814D0A0790C28E7
:103FF00011D16069401F606100D565610C20A0711E
:1040000001213846FDF7C0FB0128F9D0BDE8F05F7B
:10401000C820FFF70FB9BDE8F09F000001000020A5
:1040200000100140000801407FB5044600208DF8D3
:104030000C004FF47A75012303AAD021174800958C
:10404000FDF79EFD072301AAD02114480095FDF736
:104050006FFC9DF80400FDF7C8F920709DF805007D
:10406000FDF7C3F960709DF80600FDF7BEF9A0707A
:104070009DF80700FDF7B9F9E0709DF80800FDF71D
:10408000B4F920719DF80900FDF7AFF960719DF852
:104090000A00FDF7AAF9A0717FBD000060000020B2
:1040A0003EB5044600208DF804002078FDF75EFA46
:1040B0008DF805006078FDF759FA8DF80600A078B4
:1040C000FDF754FA8DF80700E078FDF74FFA8DF808
:1040D00008002079FDF74AFA8DF809006079FDF7AC
:1040E00045FA8DF80A00A079FDF740FA8DF80B002B
:1040F0004FF47A700090082301AAD0210148FDF7FF
:104100003FFD3EBD600000202DE9F041314F4FF4EE
:104110006161324CB878304E48437978C1EB011177
:1041200000EB810039784518606900F0FFF83168CC
:1041300000F028FA05D23068B0F5000F01DBE07816
:1041400078B1606900F0F2F8316800F01BF9E078AE
:1041500016D8012803D10220A0710020E070BDE82C
:10416000F0810120E070B8784FF4616148437978BC
:10417000C1EB011100EB810039780844606302E073
:104180000128ECD1606B0D21854206D323692A1AE0
:104190009A4202D9A278032A19D0854209D3A3688A
:1041A0002A1AC3EB0313B2EB830F02D9A278022AB7
:1041B0000DD08542D3D3E268281AC2EB4213C3EB79
:1041C0000222B0EB021FCAD9A0780128C7D1A17181
:1041D000C5E7000001000020580000201800002062
:1041E0002DE9F04722484FF46162204C8178002786
:1041F000514342780078C2EB021201EB82010D18A4
:104200004FF00109174EDFF86080606900F08EF80A
:10421000316800F0B7F906D23068B0F5000F02DB64
:1042200098F8001049B1606900F080F8316800F03A
:10423000A9F805D8607928B107E0677188F800907F
:10424000BDE8F087A56384F80590A06B854206D38E
:10425000281A092803D9074800684763F0E788F857
:104260000070EDE75800002000000020180000203A
:1042700001000020B400002010B500290AD0087801
:10428000002807D005487844FCF7A0FC002801D09E
:10429000002010BD0248784410BD00003605000023
:1042A0002E0500000808A0F500114FEA3101704703
:1042B00043004FEAD30C4FEA3C0C43401FBF40077A
:1042C0000CF1605113F0FE4F70471CF0006F03D1EA
:1042D00000200CF0004170470CF0004343EA50709E
:1042E00010B540EACC0000F002F900BF00000092D7
:1042F0004FEA0001FFF7D6BF4FF000414FF000003A
:10430000A1F5002170470000014800F06EB900BF20
:104310000000C07F401058BFC0F14040491058BF56
:10432000C1F140418142EFF30080704710F000413D
:1043300048BF4042B0FA80F310FA03F2C3F19D0384
:104340000BD051EAC35101EB1220530638BF70471E
:1043500000F1010008BF20F001007047B0FA80F3BF
:1043600010FA03F2C3F19D030AD0D90501EB122024
:10437000530638BF704700F1010008BF20F001006C
:104380007047000050EA010C00F113801CF5000F8B
:1043900058BFBCF5000F01D48842704707D710F50D
:1043A000000F58BF11F5000F15D48842704789429D
:1043B00070471CF5000F04D5BCF5000FF7D58142FE
:1043C00070474FF0807C1CEB400F38BF1CEB410F57
:1043D00001D28142704710B500F089F8922449005B
:1043E0004FF000504FF08051FFF794BF4FF47F0C17
:1043F0001CEAD0121EBF1CEAD11392EA0C0F93EAFA
:104400000C0F00F0478090EA010F48BF42F4807221
:104410004FF0004C4CEA00204CEA012102EB030271
:10442000A0FB0113A2F50002002918BF43F001030D
:104430005B0028BF4FEA330342EB22425FEA132CB2
:104440004CEBC2502EBFBCEB436FB2F57C0F7047F4
:104450004FEA036CBCF1004F08BF20F00100B2F539
:104460007C0F38BF70470BD582F0FF0212F5803FFA
:10447000C8BF704700F1C040D8BF00F0004070478F
:1044800000F5000C5FEA4C0C48BF7047B0F1C0402B
:1044900000F073B890EA010F0CEAD11348BF42F460
:1044A0008072624538BF634504D280EA010000F0A3
:1044B0000040704710B500F01AF800BF8900013EB7
:1044C00000F007B800F009B85FEA410C5FEA1C6C25
:1044D00008D080EA010000F050B85FEA400C5FEAC3
:1044E0001C6CF6D14FF00040A0F5800070470EF133
:1044F000020E2EF0030E5EF8044B244204D44FEA61
:104500004102B2F17F4F11D84FEA4003B3F17F4F20
:104510000CD80ED14FEAD07CB2F17F4F0CEB4C0C93
:104520000CF1020C08BF4CEBD17C04E04FF0080CFE
:1045300001E04FEAD17C0CEB4C0324FA03F404F0C5
:104540000704B4F1040C06D20EEB840CBDE8104055
:104550004CF0010C6047DFE80CF0070802024FF056
:104560000040A0F5800010BD0846420018BFD2F1FF
:10457000807288BF00F0004010BDFF2141EAD0509A
:10458000C005704751EA000C00F113801CF5000FC4
:1045900058BFBCF5000F01D48142704707D711F511
:1045A000000F58BF10F5000F15D4814270478942A3
:1045B00070471CF5000F04D5BCF5000FF7D58842F5
:1045C00070474FF0807C1CEB410F38BF1CEB400F55
:1045D00001D28842704780EA010081EA000180EA46
:1045E0000100FFF7F8BEFCF76FB80CF00F03092BC2
:1045F00008BF082000F051800A2B0BD0082B18BFF1
:10460000704708BF1CF0400F0AD04FF000004FF079
:10461000000170471CF0400F18BF4FF0004070477A
:104620001CF0100F08D020F0704300F07F4242EAE7
:10463000D3014FEA4370704700F0604021F07F42A1
:1046400042EA000201F07F4040EA727070474FF08A
:10465000FF0212EAD0521CBF92F0FF038B42C2BF8E
:10466000D14200EBC1507047002A0AD0002B0BD07A
:10467000002900F00040A4BF40F0FE4040F40000DC
:10468000704700F00040704743024FF00B0C18BF1A
:104690004CF0806C7FF438AE70471CF4801F11D052
:1046A0001CF4E02F03D06FEACC31490070474FF083
:1046B0004050EFF3008222F0704242EA000282F39F
:1046C000008870474FF000007047010202030405A4
:1046D000060708090A0B0C0D0E0F10100000000051
:1046E00000000000010203040607080900000000A2
:1046F00001020304040000080000000000000002A2
:10470000000100001000000002400000000000A0B6
:104710000000000005400000000000C8000000008C
:104720000C4000000000409C000000001940000008
:104730000020BCBE0000000034400000BFC91B8E3A
:1047400000000004B5400000504BCFD06607E2CF18
:10475000010000006C4100003E8251AADFEEA73448
:1047600001000000D9420000DCB5A0E23A301F97FA
:10477000FFFFFFFFB4450000FD25A0C8E9A3C14F1E
:10478000FFFFFFFFFF3F000000000080000000006F
:10479000FF3F00000000008000000000D847000834
:1047A00000000020600000002801000838480008D0
:1047B00060000020B0070000440100081C00000059
:1047C00043000000F8FFFFFF0C0000000E00000097
:1047D0000F0000002E00000000000000000000009C
:1047E00001000000100000000000000000127A002C
:1047F00000000000000001000000000000000000B8
:10480000000000001E00000000000000000000008A
:104810000000000000000000000000000000000098
:104820000000000000000000000000000000000088
:08483000000000000000000080
:04000005080000ED02
:00000001FF
